{
  "_format": "hh-sol-artifact-1",
  "contractName": "Academy",
  "sourceName": "contracts/Academy.sol",
  "abi": [
    {
      "inputs": [],
      "stateMutability": "nonpayable",
      "type": "constructor"
    },
    {
      "inputs": [
        {
          "internalType": "address",
          "name": "account",
          "type": "address"
        }
      ],
      "name": "NotAStudent",
      "type": "error"
    },
    {
      "inputs": [],
      "name": "OnlyOwner",
      "type": "error"
    },
    {
      "inputs": [
        {
          "internalType": "address",
          "name": "account",
          "type": "address"
        }
      ],
      "name": "StudentExist",
      "type": "error"
    },
    {
      "anonymous": false,
      "inputs": [
        {
          "indexed": true,
          "internalType": "address",
          "name": "account",
          "type": "address"
        },
        {
          "indexed": true,
          "internalType": "string",
          "name": "name",
          "type": "string"
        },
        {
          "indexed": false,
          "internalType": "uint256",
          "name": "time",
          "type": "uint256"
        }
      ],
      "name": "StudentAdded",
      "type": "event"
    },
    {
      "anonymous": false,
      "inputs": [
        {
          "indexed": true,
          "internalType": "address",
          "name": "account",
          "type": "address"
        },
        {
          "indexed": true,
          "internalType": "string",
          "name": "name",
          "type": "string"
        },
        {
          "indexed": false,
          "internalType": "uint256",
          "name": "time",
          "type": "uint256"
        }
      ],
      "name": "StudentRemoved",
      "type": "event"
    },
    {
      "inputs": [
        {
          "internalType": "address",
          "name": "_student",
          "type": "address"
        }
      ],
      "name": "addCourse",
      "outputs": [],
      "stateMutability": "view",
      "type": "function"
    },
    {
      "inputs": [
        {
          "internalType": "string",
          "name": "_name",
          "type": "string"
        },
        {
          "internalType": "address",
          "name": "_student",
          "type": "address"
        }
      ],
      "name": "addStudent",
      "outputs": [],
      "stateMutability": "nonpayable",
      "type": "function"
    },
    {
      "inputs": [
        {
          "internalType": "address",
          "name": "_student",
          "type": "address"
        }
      ],
      "name": "completeCourse",
      "outputs": [],
      "stateMutability": "view",
      "type": "function"
    },
    {
      "inputs": [
        {
          "internalType": "address",
          "name": "_student",
          "type": "address"
        }
      ],
      "name": "getCompletedCourses",
      "outputs": [
        {
          "internalType": "uint40",
          "name": "",
          "type": "uint40"
        }
      ],
      "stateMutability": "view",
      "type": "function"
    },
    {
      "inputs": [
        {
          "internalType": "address",
          "name": "_student",
          "type": "address"
        }
      ],
      "name": "getEnrolledCourses",
      "outputs": [
        {
          "internalType": "uint40",
          "name": "",
          "type": "uint40"
        }
      ],
      "stateMutability": "view",
      "type": "function"
    },
    {
      "inputs": [
        {
          "internalType": "address",
          "name": "_student",
          "type": "address"
        }
      ],
      "name": "getStudent",
      "outputs": [
        {
          "components": [
            {
              "internalType": "string",
              "name": "name",
              "type": "string"
            },
            {
              "internalType": "uint256",
              "name": "dateJoined",
              "type": "uint256"
            },
            {
              "internalType": "bool",
              "name": "isActive",
              "type": "bool"
            },
            {
              "internalType": "uint40",
              "name": "coursesEnrolled",
              "type": "uint40"
            },
            {
              "internalType": "uint40",
              "name": "coursesCompleted",
              "type": "uint40"
            }
          ],
          "internalType": "struct Academy.StudentData",
          "name": "",
          "type": "tuple"
        }
      ],
      "stateMutability": "view",
      "type": "function"
    },
    {
      "inputs": [
        {
          "internalType": "address",
          "name": "_student",
          "type": "address"
        }
      ],
      "name": "removeStudent",
      "outputs": [],
      "stateMutability": "nonpayable",
      "type": "function"
    }
  ],
  "bytecode": "0x60a060405234801561001057600080fd5b503373ffffffffffffffffffffffffffffffffffffffff1660808173ffffffffffffffffffffffffffffffffffffffff168152505060805161141661005d600039600050506114166000f3fe608060405234801561001057600080fd5b506004361061007d5760003560e01c80636b7b44d71161005b5780636b7b44d7146100ea57806378c4798c1461011a57806384181be914610136578063b856cebd146101525761007d565b80630993031e1461008257806310468c2f146100b25780633cd5f8ea146100ce575b600080fd5b61009c60048036038101906100979190610f0d565b610182565b6040516100a99190610f5a565b60405180910390f35b6100cc60048036038101906100c791906110bb565b61032c565b005b6100e860048036038101906100e39190610f0d565b610556565b005b61010460048036038101906100ff9190610f0d565b610721565b604051610111919061124f565b60405180910390f35b610134600480360381019061012f9190610f0d565b6108ce565b005b610150600480360381019061014b9190610f0d565b610ae7565b005b61016c60048036038101906101679190610f0d565b610cb2565b6040516101799190610f5a565b60405180910390f35b6000806000808473ffffffffffffffffffffffffffffffffffffffff1673ffffffffffffffffffffffffffffffffffffffff1681526020019081526020016000206040518060a00160405290816000820180546101de906112a0565b80601f016020809104026020016040519081016040528092919081815260200182805461020a906112a0565b80156102575780601f1061022c57610100808354040283529160200191610257565b820191906000526020600020905b81548152906001019060200180831161023a57829003601f168201915b50505050508152602001600182015481526020016002820160009054906101000a900460ff161515151581526020016002820160019054906101000a900464ffffffffff1664ffffffffff1664ffffffffff1681526020016002820160069054906101000a900464ffffffffff1664ffffffffff1664ffffffffff16815250509050806040015161031f57826040517f859505e400000000000000000000000000000000000000000000000000000000815260040161031691906112e0565b60405180910390fd5b8060600151915050919050565b60008060008373ffffffffffffffffffffffffffffffffffffffff1673ffffffffffffffffffffffffffffffffffffffff1681526020019081526020016000206040518060a0016040529081600082018054610387906112a0565b80601f01602080910402602001604051908101604052809291908181526020018280546103b3906112a0565b80156104005780601f106103d557610100808354040283529160200191610400565b820191906000526020600020905b8154815290600101906020018083116103e357829003601f168201915b50505050508152602001600182015481526020016002820160009054906101000a900460ff161515151581526020016002820160019054906101000a900464ffffffffff1664ffffffffff1664ffffffffff1681526020016002820160069054906101000a900464ffffffffff1664ffffffffff1664ffffffffff168152505090508060400151156104c957816040517ffb4758610000000000000000000000000000000000000000000000000000000081526004016104c091906112e0565b60405180910390fd5b828160000181905250428160200181815250506001816040019015159081151581525050826040516104fb9190611337565b60405180910390208273ffffffffffffffffffffffffffffffffffffffff167fac4a9513a5c8018262c0b02f41b831ce95aeefa4b387b7c565885fb0d0012d8642604051610549919061135d565b60405180910390a3505050565b60008060008373ffffffffffffffffffffffffffffffffffffffff1673ffffffffffffffffffffffffffffffffffffffff1681526020019081526020016000206040518060a00160405290816000820180546105b1906112a0565b80601f01602080910402602001604051908101604052809291908181526020018280546105dd906112a0565b801561062a5780601f106105ff5761010080835404028352916020019161062a565b820191906000526020600020905b81548152906001019060200180831161060d57829003601f168201915b50505050508152602001600182015481526020016002820160009054906101000a900460ff161515151581526020016002820160019054906101000a900464ffffffffff1664ffffffffff1664ffffffffff1681526020016002820160069054906101000a900464ffffffffff1664ffffffffff1664ffffffffff168152505090508060400151156106f357816040517ffb4758610000000000000000000000000000000000000000000000000000000081526004016106ea91906112e0565b60405180910390fd5b60018160600181815161070691906113a7565b91509064ffffffffff16908164ffffffffff16815250505050565b610729610e5c565b60008060008473ffffffffffffffffffffffffffffffffffffffff1673ffffffffffffffffffffffffffffffffffffffff1681526020019081526020016000206040518060a0016040529081600082018054610784906112a0565b80601f01602080910402602001604051908101604052809291908181526020018280546107b0906112a0565b80156107fd5780601f106107d2576101008083540402835291602001916107fd565b820191906000526020600020905b8154815290600101906020018083116107e057829003601f168201915b50505050508152602001600182015481526020016002820160009054906101000a900460ff161515151581526020016002820160019054906101000a900464ffffffffff1664ffffffffff1664ffffffffff1681526020016002820160069054906101000a900464ffffffffff1664ffffffffff1664ffffffffff1681525050905080604001516108c557826040517f859505e40000000000000000000000000000000000000000000000000000000081526004016108bc91906112e0565b60405180910390fd5b80915050919050565b60008060008373ffffffffffffffffffffffffffffffffffffffff1673ffffffffffffffffffffffffffffffffffffffff1681526020019081526020016000206040518060a0016040529081600082018054610929906112a0565b80601f0160208091040260200160405190810160405280929190818152602001828054610955906112a0565b80156109a25780601f10610977576101008083540402835291602001916109a2565b820191906000526020600020905b81548152906001019060200180831161098557829003601f168201915b50505050508152602001600182015481526020016002820160009054906101000a900460ff161515151581526020016002820160019054906101000a900464ffffffffff1664ffffffffff1664ffffffffff1681526020016002820160069054906101000a900464ffffffffff1664ffffffffff1664ffffffffff168152505090508060400151610a6a57816040517f859505e4000000000000000000000000000000000000000000000000000000008152600401610a6191906112e0565b60405180910390fd5b60008160400190151590811515815250508060000151604051610a8d9190611337565b60405180910390208273ffffffffffffffffffffffffffffffffffffffff167f7933868a8e3519d886ef44802c18c298a8d6ae396c6fcc3cd797c6c144675bed42604051610adb919061135d565b60405180910390a35050565b60008060008373ffffffffffffffffffffffffffffffffffffffff1673ffffffffffffffffffffffffffffffffffffffff1681526020019081526020016000206040518060a0016040529081600082018054610b42906112a0565b80601f0160208091040260200160405190810160405280929190818152602001828054610b6e906112a0565b8015610bbb5780601f10610b9057610100808354040283529160200191610bbb565b820191906000526020600020905b815481529060010190602001808311610b9e57829003601f168201915b50505050508152602001600182015481526020016002820160009054906101000a900460ff161515151581526020016002820160019054906101000a900464ffffffffff1664ffffffffff1664ffffffffff1681526020016002820160069054906101000a900464ffffffffff1664ffffffffff1664ffffffffff16815250509050806040015115610c8457816040517ffb475861000000000000000000000000000000000000000000000000000000008152600401610c7b91906112e0565b60405180910390fd5b600181608001818151610c9791906113a7565b91509064ffffffffff16908164ffffffffff16815250505050565b6000806000808473ffffffffffffffffffffffffffffffffffffffff1673ffffffffffffffffffffffffffffffffffffffff1681526020019081526020016000206040518060a0016040529081600082018054610d0e906112a0565b80601f0160208091040260200160405190810160405280929190818152602001828054610d3a906112a0565b8015610d875780601f10610d5c57610100808354040283529160200191610d87565b820191906000526020600020905b815481529060010190602001808311610d6a57829003601f168201915b50505050508152602001600182015481526020016002820160009054906101000a900460ff161515151581526020016002820160019054906101000a900464ffffffffff1664ffffffffff1664ffffffffff1681526020016002820160069054906101000a900464ffffffffff1664ffffffffff1664ffffffffff168152505090508060400151610e4f57826040517f859505e4000000000000000000000000000000000000000000000000000000008152600401610e4691906112e0565b60405180910390fd5b8060800151915050919050565b6040518060a001604052806060815260200160008152602001600015158152602001600064ffffffffff168152602001600064ffffffffff1681525090565b6000604051905090565b600080fd5b600080fd5b600073ffffffffffffffffffffffffffffffffffffffff82169050919050565b6000610eda82610eaf565b9050919050565b610eea81610ecf565b8114610ef557600080fd5b50565b600081359050610f0781610ee1565b92915050565b600060208284031215610f2357610f22610ea5565b5b6000610f3184828501610ef8565b91505092915050565b600064ffffffffff82169050919050565b610f5481610f3a565b82525050565b6000602082019050610f6f6000830184610f4b565b92915050565b600080fd5b600080fd5b6000601f19601f8301169050919050565b7f4e487b7100000000000000000000000000000000000000000000000000000000600052604160045260246000fd5b610fc882610f7f565b810181811067ffffffffffffffff82111715610fe757610fe6610f90565b5b80604052505050565b6000610ffa610e9b565b90506110068282610fbf565b919050565b600067ffffffffffffffff82111561102657611025610f90565b5b61102f82610f7f565b9050602081019050919050565b82818337600083830152505050565b600061105e6110598461100b565b610ff0565b90508281526020810184848401111561107a57611079610f7a565b5b61108584828561103c565b509392505050565b600082601f8301126110a2576110a1610f75565b5b81356110b284826020860161104b565b91505092915050565b600080604083850312156110d2576110d1610ea5565b5b600083013567ffffffffffffffff8111156110f0576110ef610eaa565b5b6110fc8582860161108d565b925050602061110d85828601610ef8565b9150509250929050565b600081519050919050565b600082825260208201905092915050565b60005b83811015611151578082015181840152602081019050611136565b60008484015250505050565b600061116882611117565b6111728185611122565b9350611182818560208601611133565b61118b81610f7f565b840191505092915050565b6000819050919050565b6111a981611196565b82525050565b60008115159050919050565b6111c4816111af565b82525050565b6111d381610f3a565b82525050565b600060a08301600083015184820360008601526111f6828261115d565b915050602083015161120b60208601826111a0565b50604083015161121e60408601826111bb565b50606083015161123160608601826111ca565b50608083015161124460808601826111ca565b508091505092915050565b6000602082019050818103600083015261126981846111d9565b905092915050565b7f4e487b7100000000000000000000000000000000000000000000000000000000600052602260045260246000fd5b600060028204905060018216806112b857607f821691505b6020821081036112cb576112ca611271565b5b50919050565b6112da81610ecf565b82525050565b60006020820190506112f560008301846112d1565b92915050565b600081905092915050565b600061131182611117565b61131b81856112fb565b935061132b818560208601611133565b80840191505092915050565b60006113438284611306565b915081905092915050565b61135781611196565b82525050565b6000602082019050611372600083018461134e565b92915050565b7f4e487b7100000000000000000000000000000000000000000000000000000000600052601160045260246000fd5b60006113b282610f3a565b91506113bd83610f3a565b9250828201905064ffffffffff8111156113da576113d9611378565b5b9291505056fea26469706673582212200a42efb6fd1d49dc20a02649de84fb84a6b51f9e2792a81a90b02bcf809cdb1a64736f6c63430008180033",
  "linkReferences": {},
  "deployedLinkReferences": {}
}