{
  "_format": "hh-sol-artifact-1",
  "contractName": "DyveToken",
  "sourceName": "contracts/DyveToken.sol",
  "abi": [
    {
      "inputs": [],
      "stateMutability": "nonpayable",
      "type": "constructor"
    },
    {
      "inputs": [
        {
          "internalType": "address",
          "name": "spender",
          "type": "address"
        },
        {
          "internalType": "uint256",
          "name": "allowance",
          "type": "uint256"
        },
        {
          "internalType": "uint256",
          "name": "needed",
          "type": "uint256"
        }
      ],
      "name": "ERC20InsufficientAllowance",
      "type": "error"
    },
    {
      "inputs": [
        {
          "internalType": "address",
          "name": "sender",
          "type": "address"
        },
        {
          "internalType": "uint256",
          "name": "balance",
          "type": "uint256"
        },
        {
          "internalType": "uint256",
          "name": "needed",
          "type": "uint256"
        }
      ],
      "name": "ERC20InsufficientBalance",
      "type": "error"
    },
    {
      "inputs": [
        {
          "internalType": "address",
          "name": "approver",
          "type": "address"
        }
      ],
      "name": "ERC20InvalidApprover",
      "type": "error"
    },
    {
      "inputs": [
        {
          "internalType": "address",
          "name": "receiver",
          "type": "address"
        }
      ],
      "name": "ERC20InvalidReceiver",
      "type": "error"
    },
    {
      "inputs": [
        {
          "internalType": "address",
          "name": "sender",
          "type": "address"
        }
      ],
      "name": "ERC20InvalidSender",
      "type": "error"
    },
    {
      "inputs": [
        {
          "internalType": "address",
          "name": "spender",
          "type": "address"
        }
      ],
      "name": "ERC20InvalidSpender",
      "type": "error"
    },
    {
      "inputs": [],
      "name": "MaxSupply",
      "type": "error"
    },
    {
      "anonymous": false,
      "inputs": [
        {
          "indexed": true,
          "internalType": "address",
          "name": "owner",
          "type": "address"
        },
        {
          "indexed": true,
          "internalType": "address",
          "name": "spender",
          "type": "address"
        },
        {
          "indexed": false,
          "internalType": "uint256",
          "name": "value",
          "type": "uint256"
        }
      ],
      "name": "Approval",
      "type": "event"
    },
    {
      "anonymous": false,
      "inputs": [
        {
          "indexed": true,
          "internalType": "uint256",
          "name": "amount",
          "type": "uint256"
        },
        {
          "indexed": false,
          "internalType": "uint256",
          "name": "time",
          "type": "uint256"
        }
      ],
      "name": "TokenBurnt",
      "type": "event"
    },
    {
      "anonymous": false,
      "inputs": [
        {
          "indexed": true,
          "internalType": "uint256",
          "name": "amount",
          "type": "uint256"
        },
        {
          "indexed": true,
          "internalType": "address",
          "name": "account",
          "type": "address"
        },
        {
          "indexed": false,
          "internalType": "uint256",
          "name": "time",
          "type": "uint256"
        }
      ],
      "name": "TokenMinted",
      "type": "event"
    },
    {
      "anonymous": false,
      "inputs": [
        {
          "indexed": true,
          "internalType": "address",
          "name": "from",
          "type": "address"
        },
        {
          "indexed": true,
          "internalType": "address",
          "name": "to",
          "type": "address"
        },
        {
          "indexed": false,
          "internalType": "uint256",
          "name": "value",
          "type": "uint256"
        }
      ],
      "name": "Transfer",
      "type": "event"
    },
    {
      "inputs": [],
      "name": "MAX_SUPPLY",
      "outputs": [
        {
          "internalType": "uint256",
          "name": "",
          "type": "uint256"
        }
      ],
      "stateMutability": "view",
      "type": "function"
    },
    {
      "inputs": [
        {
          "internalType": "address",
          "name": "owner",
          "type": "address"
        },
        {
          "internalType": "address",
          "name": "spender",
          "type": "address"
        }
      ],
      "name": "allowance",
      "outputs": [
        {
          "internalType": "uint256",
          "name": "",
          "type": "uint256"
        }
      ],
      "stateMutability": "view",
      "type": "function"
    },
    {
      "inputs": [
        {
          "internalType": "address",
          "name": "spender",
          "type": "address"
        },
        {
          "internalType": "uint256",
          "name": "value",
          "type": "uint256"
        }
      ],
      "name": "approve",
      "outputs": [
        {
          "internalType": "bool",
          "name": "",
          "type": "bool"
        }
      ],
      "stateMutability": "nonpayable",
      "type": "function"
    },
    {
      "inputs": [
        {
          "internalType": "address",
          "name": "account",
          "type": "address"
        }
      ],
      "name": "balanceOf",
      "outputs": [
        {
          "internalType": "uint256",
          "name": "",
          "type": "uint256"
        }
      ],
      "stateMutability": "view",
      "type": "function"
    },
    {
      "inputs": [
        {
          "internalType": "uint40",
          "name": "_amount",
          "type": "uint40"
        }
      ],
      "name": "burn",
      "outputs": [],
      "stateMutability": "nonpayable",
      "type": "function"
    },
    {
      "inputs": [],
      "name": "decimals",
      "outputs": [
        {
          "internalType": "uint8",
          "name": "",
          "type": "uint8"
        }
      ],
      "stateMutability": "pure",
      "type": "function"
    },
    {
      "inputs": [
        {
          "internalType": "address",
          "name": "_to",
          "type": "address"
        },
        {
          "internalType": "uint256",
          "name": "_amount",
          "type": "uint256"
        }
      ],
      "name": "mint",
      "outputs": [],
      "stateMutability": "nonpayable",
      "type": "function"
    },
    {
      "inputs": [],
      "name": "name",
      "outputs": [
        {
          "internalType": "string",
          "name": "",
          "type": "string"
        }
      ],
      "stateMutability": "view",
      "type": "function"
    },
    {
      "inputs": [],
      "name": "symbol",
      "outputs": [
        {
          "internalType": "string",
          "name": "",
          "type": "string"
        }
      ],
      "stateMutability": "view",
      "type": "function"
    },
    {
      "inputs": [],
      "name": "totalSupply",
      "outputs": [
        {
          "internalType": "uint256",
          "name": "",
          "type": "uint256"
        }
      ],
      "stateMutability": "view",
      "type": "function"
    },
    {
      "inputs": [
        {
          "internalType": "address",
          "name": "to",
          "type": "address"
        },
        {
          "internalType": "uint256",
          "name": "value",
          "type": "uint256"
        }
      ],
      "name": "transfer",
      "outputs": [
        {
          "internalType": "bool",
          "name": "",
          "type": "bool"
        }
      ],
      "stateMutability": "nonpayable",
      "type": "function"
    },
    {
      "inputs": [
        {
          "internalType": "address",
          "name": "from",
          "type": "address"
        },
        {
          "internalType": "address",
          "name": "to",
          "type": "address"
        },
        {
          "internalType": "uint256",
          "name": "value",
          "type": "uint256"
        }
      ],
      "name": "transferFrom",
      "outputs": [
        {
          "internalType": "bool",
          "name": "",
          "type": "bool"
        }
      ],
      "stateMutability": "nonpayable",
      "type": "function"
    }
  ],
  "bytecode": "0x60a06040523480156200001157600080fd5b506040518060400160405280600481526020017f44797665000000000000000000000000000000000000000000000000000000008152506040518060400160405280600381526020017f445956000000000000000000000000000000000000000000000000000000000081525081600390816200008f919062000358565b508060049081620000a1919062000358565b5050503373ffffffffffffffffffffffffffffffffffffffff1660808173ffffffffffffffffffffffffffffffffffffffff16815250506200043f565b600081519050919050565b7f4e487b7100000000000000000000000000000000000000000000000000000000600052604160045260246000fd5b7f4e487b7100000000000000000000000000000000000000000000000000000000600052602260045260246000fd5b600060028204905060018216806200016057607f821691505b60208210810362000176576200017562000118565b5b50919050565b60008190508160005260206000209050919050565b60006020601f8301049050919050565b600082821b905092915050565b600060088302620001e07fffffffffffffffffffffffffffffffffffffffffffffffffffffffffffffffff82620001a1565b620001ec8683620001a1565b95508019841693508086168417925050509392505050565b6000819050919050565b6000819050919050565b600062000239620002336200022d8462000204565b6200020e565b62000204565b9050919050565b6000819050919050565b620002558362000218565b6200026d620002648262000240565b848454620001ae565b825550505050565b600090565b6200028462000275565b620002918184846200024a565b505050565b5b81811015620002b957620002ad6000826200027a565b60018101905062000297565b5050565b601f8211156200030857620002d2816200017c565b620002dd8462000191565b81016020851015620002ed578190505b62000305620002fc8562000191565b83018262000296565b50505b505050565b600082821c905092915050565b60006200032d600019846008026200030d565b1980831691505092915050565b60006200034883836200031a565b9150826002028217905092915050565b6200036382620000de565b67ffffffffffffffff8111156200037f576200037e620000e9565b5b6200038b825462000147565b62000398828285620002bd565b600060209050601f831160018114620003d05760008415620003bb578287015190505b620003c785826200033a565b86555062000437565b601f198416620003e0866200017c565b60005b828110156200040a57848901518255600182019150602085019450602081019050620003e3565b868310156200042a578489015162000426601f8916826200031a565b8355505b6001600288020188555050505b505050505050565b60805161114362000458600039600050506111436000f3fe608060405234801561001057600080fd5b50600436106100b45760003560e01c806340c10f191161007157806340c10f191461019157806341ccafad146101ad57806370a08231146101c957806395d89b41146101f9578063a9059cbb14610217578063dd62ed3e14610247576100b4565b806306fdde03146100b9578063095ea7b3146100d757806318160ddd1461010757806323b872dd14610125578063313ce5671461015557806332cb6b0c14610173575b600080fd5b6100c1610277565b6040516100ce9190610d2d565b60405180910390f35b6100f160048036038101906100ec9190610de8565b610309565b6040516100fe9190610e43565b60405180910390f35b61010f61032c565b60405161011c9190610e6d565b60405180910390f35b61013f600480360381019061013a9190610e88565b610336565b60405161014c9190610e43565b60405180910390f35b61015d610365565b60405161016a9190610ef7565b60405180910390f35b61017b61036e565b6040516101889190610e6d565b60405180910390f35b6101ab60048036038101906101a69190610de8565b610377565b005b6101c760048036038101906101c29190610f4f565b610424565b005b6101e360048036038101906101de9190610f7c565b610477565b6040516101f09190610e6d565b60405180910390f35b6102016104bf565b60405161020e9190610d2d565b60405180910390f35b610231600480360381019061022c9190610de8565b610551565b60405161023e9190610e43565b60405180910390f35b610261600480360381019061025c9190610fa9565b610574565b60405161026e9190610e6d565b60405180910390f35b60606003805461028690611018565b80601f01602080910402602001604051908101604052809291908181526020018280546102b290611018565b80156102ff5780601f106102d4576101008083540402835291602001916102ff565b820191906000526020600020905b8154815290600101906020018083116102e257829003601f168201915b5050505050905090565b6000806103146105fb565b9050610321818585610603565b600191505092915050565b6000600254905090565b6000806103416105fb565b905061034e858285610615565b6103598585856106a9565b60019150509392505050565b60006002905090565b640ba43b740081565b640ba43b74008161038661032c565b6103909190611078565b106103c7576040517fb36c128400000000000000000000000000000000000000000000000000000000815260040160405180910390fd5b6103d1828261079d565b8173ffffffffffffffffffffffffffffffffffffffff16817f2d03118aa776f7008445f6ca8490a6782ede2db364d741513555ba656ab1879f426040516104189190610e6d565b60405180910390a35050565b610435338264ffffffffff1661081f565b8064ffffffffff167f6fbc0c4b720d307e4fc0b213d3a3426620d369285cce0079bea9ccb0b227b9a44260405161046c9190610e6d565b60405180910390a250565b60008060008373ffffffffffffffffffffffffffffffffffffffff1673ffffffffffffffffffffffffffffffffffffffff168152602001908152602001600020549050919050565b6060600480546104ce90611018565b80601f01602080910402602001604051908101604052809291908181526020018280546104fa90611018565b80156105475780601f1061051c57610100808354040283529160200191610547565b820191906000526020600020905b81548152906001019060200180831161052a57829003601f168201915b5050505050905090565b60008061055c6105fb565b90506105698185856106a9565b600191505092915050565b6000600160008473ffffffffffffffffffffffffffffffffffffffff1673ffffffffffffffffffffffffffffffffffffffff16815260200190815260200160002060008373ffffffffffffffffffffffffffffffffffffffff1673ffffffffffffffffffffffffffffffffffffffff16815260200190815260200160002054905092915050565b600033905090565b61061083838360016108a1565b505050565b60006106218484610574565b90507fffffffffffffffffffffffffffffffffffffffffffffffffffffffffffffffff81146106a35781811015610693578281836040517ffb8f41b200000000000000000000000000000000000000000000000000000000815260040161068a939291906110bb565b60405180910390fd5b6106a2848484840360006108a1565b5b50505050565b600073ffffffffffffffffffffffffffffffffffffffff168373ffffffffffffffffffffffffffffffffffffffff160361071b5760006040517f96c6fd1e00000000000000000000000000000000000000000000000000000000815260040161071291906110f2565b60405180910390fd5b600073ffffffffffffffffffffffffffffffffffffffff168273ffffffffffffffffffffffffffffffffffffffff160361078d5760006040517fec442f0500000000000000000000000000000000000000000000000000000000815260040161078491906110f2565b60405180910390fd5b610798838383610a78565b505050565b600073ffffffffffffffffffffffffffffffffffffffff168273ffffffffffffffffffffffffffffffffffffffff160361080f5760006040517fec442f0500000000000000000000000000000000000000000000000000000000815260040161080691906110f2565b60405180910390fd5b61081b60008383610a78565b5050565b600073ffffffffffffffffffffffffffffffffffffffff168273ffffffffffffffffffffffffffffffffffffffff16036108915760006040517f96c6fd1e00000000000000000000000000000000000000000000000000000000815260040161088891906110f2565b60405180910390fd5b61089d82600083610a78565b5050565b600073ffffffffffffffffffffffffffffffffffffffff168473ffffffffffffffffffffffffffffffffffffffff16036109135760006040517fe602df0500000000000000000000000000000000000000000000000000000000815260040161090a91906110f2565b60405180910390fd5b600073ffffffffffffffffffffffffffffffffffffffff168373ffffffffffffffffffffffffffffffffffffffff16036109855760006040517f94280d6200000000000000000000000000000000000000000000000000000000815260040161097c91906110f2565b60405180910390fd5b81600160008673ffffffffffffffffffffffffffffffffffffffff1673ffffffffffffffffffffffffffffffffffffffff16815260200190815260200160002060008573ffffffffffffffffffffffffffffffffffffffff1673ffffffffffffffffffffffffffffffffffffffff168152602001908152602001600020819055508015610a72578273ffffffffffffffffffffffffffffffffffffffff168473ffffffffffffffffffffffffffffffffffffffff167f8c5be1e5ebec7d5bd14f71427d1e84f3dd0314c0f7b2291e5b200ac8c7c3b92584604051610a699190610e6d565b60405180910390a35b50505050565b600073ffffffffffffffffffffffffffffffffffffffff168373ffffffffffffffffffffffffffffffffffffffff1603610aca578060026000828254610abe9190611078565b92505081905550610b9d565b60008060008573ffffffffffffffffffffffffffffffffffffffff1673ffffffffffffffffffffffffffffffffffffffff16815260200190815260200160002054905081811015610b56578381836040517fe450d38c000000000000000000000000000000000000000000000000000000008152600401610b4d939291906110bb565b60405180910390fd5b8181036000808673ffffffffffffffffffffffffffffffffffffffff1673ffffffffffffffffffffffffffffffffffffffff16815260200190815260200160002081905550505b600073ffffffffffffffffffffffffffffffffffffffff168273ffffffffffffffffffffffffffffffffffffffff1603610be65780600260008282540392505081905550610c33565b806000808473ffffffffffffffffffffffffffffffffffffffff1673ffffffffffffffffffffffffffffffffffffffff168152602001908152602001600020600082825401925050819055505b8173ffffffffffffffffffffffffffffffffffffffff168373ffffffffffffffffffffffffffffffffffffffff167fddf252ad1be2c89b69c2b068fc378daa952ba7f163c4a11628f55a4df523b3ef83604051610c909190610e6d565b60405180910390a3505050565b600081519050919050565b600082825260208201905092915050565b60005b83811015610cd7578082015181840152602081019050610cbc565b60008484015250505050565b6000601f19601f8301169050919050565b6000610cff82610c9d565b610d098185610ca8565b9350610d19818560208601610cb9565b610d2281610ce3565b840191505092915050565b60006020820190508181036000830152610d478184610cf4565b905092915050565b600080fd5b600073ffffffffffffffffffffffffffffffffffffffff82169050919050565b6000610d7f82610d54565b9050919050565b610d8f81610d74565b8114610d9a57600080fd5b50565b600081359050610dac81610d86565b92915050565b6000819050919050565b610dc581610db2565b8114610dd057600080fd5b50565b600081359050610de281610dbc565b92915050565b60008060408385031215610dff57610dfe610d4f565b5b6000610e0d85828601610d9d565b9250506020610e1e85828601610dd3565b9150509250929050565b60008115159050919050565b610e3d81610e28565b82525050565b6000602082019050610e586000830184610e34565b92915050565b610e6781610db2565b82525050565b6000602082019050610e826000830184610e5e565b92915050565b600080600060608486031215610ea157610ea0610d4f565b5b6000610eaf86828701610d9d565b9350506020610ec086828701610d9d565b9250506040610ed186828701610dd3565b9150509250925092565b600060ff82169050919050565b610ef181610edb565b82525050565b6000602082019050610f0c6000830184610ee8565b92915050565b600064ffffffffff82169050919050565b610f2c81610f12565b8114610f3757600080fd5b50565b600081359050610f4981610f23565b92915050565b600060208284031215610f6557610f64610d4f565b5b6000610f7384828501610f3a565b91505092915050565b600060208284031215610f9257610f91610d4f565b5b6000610fa084828501610d9d565b91505092915050565b60008060408385031215610fc057610fbf610d4f565b5b6000610fce85828601610d9d565b9250506020610fdf85828601610d9d565b9150509250929050565b7f4e487b7100000000000000000000000000000000000000000000000000000000600052602260045260246000fd5b6000600282049050600182168061103057607f821691505b60208210810361104357611042610fe9565b5b50919050565b7f4e487b7100000000000000000000000000000000000000000000000000000000600052601160045260246000fd5b600061108382610db2565b915061108e83610db2565b92508282019050808211156110a6576110a5611049565b5b92915050565b6110b581610d74565b82525050565b60006060820190506110d060008301866110ac565b6110dd6020830185610e5e565b6110ea6040830184610e5e565b949350505050565b600060208201905061110760008301846110ac565b9291505056fea26469706673582212204f0403bfdeaa524c2f9b266ecac30a8a4361ebc6ab461fc385fba25601bb0fcd64736f6c63430008180033",
  "linkReferences": {},
  "deployedLinkReferences": {}
}